{
  "_format": "hh-sol-artifact-1",
  "contractName": "NftContract",
  "sourceName": "contracts/NftContract.sol",
  "abi": [
    {
      "inputs": [],
      "stateMutability": "nonpayable",
      "type": "constructor"
    },
    {
      "anonymous": false,
      "inputs": [
        {
          "indexed": true,
          "internalType": "address",
          "name": "owner",
          "type": "address"
        },
        {
          "indexed": true,
          "internalType": "address",
          "name": "approved",
          "type": "address"
        },
        {
          "indexed": true,
          "internalType": "uint256",
          "name": "tokenId",
          "type": "uint256"
        }
      ],
      "name": "Approval",
      "type": "event"
    },
    {
      "anonymous": false,
      "inputs": [
        {
          "indexed": true,
          "internalType": "address",
          "name": "owner",
          "type": "address"
        },
        {
          "indexed": true,
          "internalType": "address",
          "name": "operator",
          "type": "address"
        },
        {
          "indexed": false,
          "internalType": "bool",
          "name": "approved",
          "type": "bool"
        }
      ],
      "name": "ApprovalForAll",
      "type": "event"
    },
    {
      "anonymous": false,
      "inputs": [
        {
          "indexed": true,
          "internalType": "address",
          "name": "previousOwner",
          "type": "address"
        },
        {
          "indexed": true,
          "internalType": "address",
          "name": "newOwner",
          "type": "address"
        }
      ],
      "name": "OwnershipTransferred",
      "type": "event"
    },
    {
      "anonymous": false,
      "inputs": [
        {
          "indexed": true,
          "internalType": "address",
          "name": "from",
          "type": "address"
        },
        {
          "indexed": true,
          "internalType": "address",
          "name": "to",
          "type": "address"
        },
        {
          "indexed": true,
          "internalType": "uint256",
          "name": "tokenId",
          "type": "uint256"
        }
      ],
      "name": "Transfer",
      "type": "event"
    },
    {
      "inputs": [
        {
          "internalType": "address",
          "name": "to",
          "type": "address"
        },
        {
          "internalType": "uint256",
          "name": "tokenId",
          "type": "uint256"
        }
      ],
      "name": "approve",
      "outputs": [],
      "stateMutability": "nonpayable",
      "type": "function"
    },
    {
      "inputs": [
        {
          "internalType": "address",
          "name": "owner",
          "type": "address"
        }
      ],
      "name": "balanceOf",
      "outputs": [
        {
          "internalType": "uint256",
          "name": "",
          "type": "uint256"
        }
      ],
      "stateMutability": "view",
      "type": "function"
    },
    {
      "inputs": [
        {
          "internalType": "uint256",
          "name": "tokenId",
          "type": "uint256"
        }
      ],
      "name": "getApproved",
      "outputs": [
        {
          "internalType": "address",
          "name": "",
          "type": "address"
        }
      ],
      "stateMutability": "view",
      "type": "function"
    },
    {
      "inputs": [
        {
          "internalType": "address",
          "name": "owner",
          "type": "address"
        },
        {
          "internalType": "address",
          "name": "operator",
          "type": "address"
        }
      ],
      "name": "isApprovedForAll",
      "outputs": [
        {
          "internalType": "bool",
          "name": "",
          "type": "bool"
        }
      ],
      "stateMutability": "view",
      "type": "function"
    },
    {
      "inputs": [
        {
          "internalType": "string",
          "name": "_tokenURI",
          "type": "string"
        }
      ],
      "name": "mint",
      "outputs": [
        {
          "internalType": "uint256",
          "name": "",
          "type": "uint256"
        }
      ],
      "stateMutability": "nonpayable",
      "type": "function"
    },
    {
      "inputs": [],
      "name": "name",
      "outputs": [
        {
          "internalType": "string",
          "name": "",
          "type": "string"
        }
      ],
      "stateMutability": "view",
      "type": "function"
    },
    {
      "inputs": [],
      "name": "owner",
      "outputs": [
        {
          "internalType": "address",
          "name": "",
          "type": "address"
        }
      ],
      "stateMutability": "view",
      "type": "function"
    },
    {
      "inputs": [
        {
          "internalType": "uint256",
          "name": "tokenId",
          "type": "uint256"
        }
      ],
      "name": "ownerOf",
      "outputs": [
        {
          "internalType": "address",
          "name": "",
          "type": "address"
        }
      ],
      "stateMutability": "view",
      "type": "function"
    },
    {
      "inputs": [],
      "name": "renounceOwnership",
      "outputs": [],
      "stateMutability": "nonpayable",
      "type": "function"
    },
    {
      "inputs": [
        {
          "internalType": "address",
          "name": "from",
          "type": "address"
        },
        {
          "internalType": "address",
          "name": "to",
          "type": "address"
        },
        {
          "internalType": "uint256",
          "name": "tokenId",
          "type": "uint256"
        }
      ],
      "name": "safeTransferFrom",
      "outputs": [],
      "stateMutability": "nonpayable",
      "type": "function"
    },
    {
      "inputs": [
        {
          "internalType": "address",
          "name": "from",
          "type": "address"
        },
        {
          "internalType": "address",
          "name": "to",
          "type": "address"
        },
        {
          "internalType": "uint256",
          "name": "tokenId",
          "type": "uint256"
        },
        {
          "internalType": "bytes",
          "name": "data",
          "type": "bytes"
        }
      ],
      "name": "safeTransferFrom",
      "outputs": [],
      "stateMutability": "nonpayable",
      "type": "function"
    },
    {
      "inputs": [
        {
          "internalType": "address",
          "name": "operator",
          "type": "address"
        },
        {
          "internalType": "bool",
          "name": "approved",
          "type": "bool"
        }
      ],
      "name": "setApprovalForAll",
      "outputs": [],
      "stateMutability": "nonpayable",
      "type": "function"
    },
    {
      "inputs": [
        {
          "internalType": "bytes4",
          "name": "interfaceId",
          "type": "bytes4"
        }
      ],
      "name": "supportsInterface",
      "outputs": [
        {
          "internalType": "bool",
          "name": "",
          "type": "bool"
        }
      ],
      "stateMutability": "view",
      "type": "function"
    },
    {
      "inputs": [],
      "name": "symbol",
      "outputs": [
        {
          "internalType": "string",
          "name": "",
          "type": "string"
        }
      ],
      "stateMutability": "view",
      "type": "function"
    },
    {
      "inputs": [
        {
          "internalType": "uint256",
          "name": "index",
          "type": "uint256"
        }
      ],
      "name": "tokenByIndex",
      "outputs": [
        {
          "internalType": "uint256",
          "name": "",
          "type": "uint256"
        }
      ],
      "stateMutability": "view",
      "type": "function"
    },
    {
      "inputs": [
        {
          "internalType": "address",
          "name": "owner",
          "type": "address"
        },
        {
          "internalType": "uint256",
          "name": "index",
          "type": "uint256"
        }
      ],
      "name": "tokenOfOwnerByIndex",
      "outputs": [
        {
          "internalType": "uint256",
          "name": "",
          "type": "uint256"
        }
      ],
      "stateMutability": "view",
      "type": "function"
    },
    {
      "inputs": [
        {
          "internalType": "uint256",
          "name": "tokenId",
          "type": "uint256"
        }
      ],
      "name": "tokenURI",
      "outputs": [
        {
          "internalType": "string",
          "name": "",
          "type": "string"
        }
      ],
      "stateMutability": "view",
      "type": "function"
    },
    {
      "inputs": [],
      "name": "totalSupply",
      "outputs": [
        {
          "internalType": "uint256",
          "name": "",
          "type": "uint256"
        }
      ],
      "stateMutability": "view",
      "type": "function"
    },
    {
      "inputs": [
        {
          "internalType": "address",
          "name": "from",
          "type": "address"
        },
        {
          "internalType": "address",
          "name": "to",
          "type": "address"
        },
        {
          "internalType": "uint256",
          "name": "tokenId",
          "type": "uint256"
        }
      ],
      "name": "transferFrom",
      "outputs": [],
      "stateMutability": "nonpayable",
      "type": "function"
    },
    {
      "inputs": [
        {
          "internalType": "address",
          "name": "newOwner",
          "type": "address"
        }
      ],
      "name": "transferOwnership",
      "outputs": [],
      "stateMutability": "nonpayable",
      "type": "function"
    }
  ],
  "bytecode": "0x60806040523480156200001157600080fd5b506040518060400160405280600781526020017f5374616b657273000000000000000000000000000000000000000000000000008152506040518060400160405280600381526020017f53544b0000000000000000000000000000000000000000000000000000000000815250816000908051906020019062000096929190620001a6565b508060019080519060200190620000af929190620001a6565b505050620000d2620000c6620000d860201b60201c565b620000e060201b60201c565b620002bb565b600033905090565b6000600b60009054906101000a900473ffffffffffffffffffffffffffffffffffffffff16905081600b60006101000a81548173ffffffffffffffffffffffffffffffffffffffff021916908373ffffffffffffffffffffffffffffffffffffffff1602179055508173ffffffffffffffffffffffffffffffffffffffff168173ffffffffffffffffffffffffffffffffffffffff167f8be0079c531659141344cd1fd0a4f28419497f9722a3daafe3b4186f6b6457e060405160405180910390a35050565b828054620001b49062000256565b90600052602060002090601f016020900481019282620001d8576000855562000224565b82601f10620001f357805160ff191683800117855562000224565b8280016001018555821562000224579182015b828111156200022357825182559160200191906001019062000206565b5b50905062000233919062000237565b5090565b5b808211156200025257600081600090555060010162000238565b5090565b600060028204905060018216806200026f57607f821691505b602082108114156200028657620002856200028c565b5b50919050565b7f4e487b7100000000000000000000000000000000000000000000000000000000600052602260045260246000fd5b61353580620002cb6000396000f3fe608060405234801561001057600080fd5b506004361061012c5760003560e01c806370a08231116100ad578063b88d4fde11610071578063b88d4fde14610343578063c87b56dd1461035f578063d85d3d271461038f578063e985e9c5146103bf578063f2fde38b146103ef5761012c565b806370a08231146102b1578063715018a6146102e15780638da5cb5b146102eb57806395d89b4114610309578063a22cb465146103275761012c565b806323b872dd116100f457806323b872dd146101e95780632f745c591461020557806342842e0e146102355780634f6ccce7146102515780636352211e146102815761012c565b806301ffc9a71461013157806306fdde0314610161578063081812fc1461017f578063095ea7b3146101af57806318160ddd146101cb575b600080fd5b61014b60048036038101906101469190612581565b61040b565b60405161015891906129eb565b60405180910390f35b61016961041d565b6040516101769190612a06565b60405180910390f35b61019960048036038101906101949190612614565b6104af565b6040516101a69190612984565b60405180910390f35b6101c960048036038101906101c49190612545565b6104f5565b005b6101d361060d565b6040516101e09190612c48565b60405180910390f35b61020360048036038101906101fe919061243f565b61061a565b005b61021f600480360381019061021a9190612545565b61067a565b60405161022c9190612c48565b60405180910390f35b61024f600480360381019061024a919061243f565b61071f565b005b61026b60048036038101906102669190612614565b61073f565b6040516102789190612c48565b60405180910390f35b61029b60048036038101906102969190612614565b6107d6565b6040516102a89190612984565b60405180910390f35b6102cb60048036038101906102c691906123da565b610888565b6040516102d89190612c48565b60405180910390f35b6102e9610940565b005b6102f3610954565b6040516103009190612984565b60405180910390f35b61031161097e565b60405161031e9190612a06565b60405180910390f35b610341600480360381019061033c9190612509565b610a10565b005b61035d6004803603810190610358919061248e565b610a26565b005b61037960048036038101906103749190612614565b610a88565b6040516103869190612a06565b60405180910390f35b6103a960048036038101906103a491906125d3565b610a9a565b6040516103b69190612c48565b60405180910390f35b6103d960048036038101906103d49190612403565b610b15565b6040516103e691906129eb565b60405180910390f35b610409600480360381019061040491906123da565b610ba9565b005b600061041682610c2d565b9050919050565b60606000805461042c90612e9e565b80601f016020809104026020016040519081016040528092919081815260200182805461045890612e9e565b80156104a55780601f1061047a576101008083540402835291602001916104a5565b820191906000526020600020905b81548152906001019060200180831161048857829003601f168201915b5050505050905090565b60006104ba82610ca7565b6004600083815260200190815260200160002060009054906101000a900473ffffffffffffffffffffffffffffffffffffffff169050919050565b6000610500826107d6565b90508073ffffffffffffffffffffffffffffffffffffffff168373ffffffffffffffffffffffffffffffffffffffff161415610571576040517f08c379a000000000000000000000000000000000000000000000000000000000815260040161056890612be8565b60405180910390fd5b8073ffffffffffffffffffffffffffffffffffffffff16610590610cf2565b73ffffffffffffffffffffffffffffffffffffffff1614806105bf57506105be816105b9610cf2565b610b15565b5b6105fe576040517f08c379a00000000000000000000000000000000000000000000000000000000081526004016105f590612b68565b60405180910390fd5b6106088383610cfa565b505050565b6000600880549050905090565b61062b610625610cf2565b82610db3565b61066a576040517f08c379a000000000000000000000000000000000000000000000000000000000815260040161066190612c28565b60405180910390fd5b610675838383610e48565b505050565b600061068583610888565b82106106c6576040517f08c379a00000000000000000000000000000000000000000000000000000000081526004016106bd90612a48565b60405180910390fd5b600660008473ffffffffffffffffffffffffffffffffffffffff1673ffffffffffffffffffffffffffffffffffffffff168152602001908152602001600020600083815260200190815260200160002054905092915050565b61073a83838360405180602001604052806000815250610a26565b505050565b600061074961060d565b821061078a576040517f08c379a000000000000000000000000000000000000000000000000000000000815260040161078190612c08565b60405180910390fd5b600882815481106107c4577f4e487b7100000000000000000000000000000000000000000000000000000000600052603260045260246000fd5b90600052602060002001549050919050565b6000806002600084815260200190815260200160002060009054906101000a900473ffffffffffffffffffffffffffffffffffffffff169050600073ffffffffffffffffffffffffffffffffffffffff168173ffffffffffffffffffffffffffffffffffffffff16141561087f576040517f08c379a000000000000000000000000000000000000000000000000000000000815260040161087690612bc8565b60405180910390fd5b80915050919050565b60008073ffffffffffffffffffffffffffffffffffffffff168273ffffffffffffffffffffffffffffffffffffffff1614156108f9576040517f08c379a00000000000000000000000000000000000000000000000000000000081526004016108f090612b28565b60405180910390fd5b600360008373ffffffffffffffffffffffffffffffffffffffff1673ffffffffffffffffffffffffffffffffffffffff168152602001908152602001600020549050919050565b6109486110af565b610952600061112d565b565b6000600b60009054906101000a900473ffffffffffffffffffffffffffffffffffffffff16905090565b60606001805461098d90612e9e565b80601f01602080910402602001604051908101604052809291908181526020018280546109b990612e9e565b8015610a065780601f106109db57610100808354040283529160200191610a06565b820191906000526020600020905b8154815290600101906020018083116109e957829003601f168201915b5050505050905090565b610a22610a1b610cf2565b83836111f3565b5050565b610a37610a31610cf2565b83610db3565b610a76576040517f08c379a0000000000000000000000000000000000000000000000000000000008152600401610a6d90612c28565b60405180910390fd5b610a8284848484611360565b50505050565b6060610a93826113bc565b9050919050565b60006007825111610ae0576040517f08c379a0000000000000000000000000000000000000000000000000000000008152600401610ad790612a28565b60405180910390fd5b6000610aec600c6114cf565b9050610af8600c6114dd565b610b0233826114f3565b610b0c8184611511565b80915050919050565b6000600560008473ffffffffffffffffffffffffffffffffffffffff1673ffffffffffffffffffffffffffffffffffffffff16815260200190815260200160002060008373ffffffffffffffffffffffffffffffffffffffff1673ffffffffffffffffffffffffffffffffffffffff16815260200190815260200160002060009054906101000a900460ff16905092915050565b610bb16110af565b600073ffffffffffffffffffffffffffffffffffffffff168173ffffffffffffffffffffffffffffffffffffffff161415610c21576040517f08c379a0000000000000000000000000000000000000000000000000000000008152600401610c1890612a88565b60405180910390fd5b610c2a8161112d565b50565b60007f780e9d63000000000000000000000000000000000000000000000000000000007bffffffffffffffffffffffffffffffffffffffffffffffffffffffff1916827bffffffffffffffffffffffffffffffffffffffffffffffffffffffff19161480610ca05750610c9f82611585565b5b9050919050565b610cb081611667565b610cef576040517f08c379a0000000000000000000000000000000000000000000000000000000008152600401610ce690612bc8565b60405180910390fd5b50565b600033905090565b816004600083815260200190815260200160002060006101000a81548173ffffffffffffffffffffffffffffffffffffffff021916908373ffffffffffffffffffffffffffffffffffffffff160217905550808273ffffffffffffffffffffffffffffffffffffffff16610d6d836107d6565b73ffffffffffffffffffffffffffffffffffffffff167f8c5be1e5ebec7d5bd14f71427d1e84f3dd0314c0f7b2291e5b200ac8c7c3b92560405160405180910390a45050565b600080610dbf836107d6565b90508073ffffffffffffffffffffffffffffffffffffffff168473ffffffffffffffffffffffffffffffffffffffff161480610e015750610e008185610b15565b5b80610e3f57508373ffffffffffffffffffffffffffffffffffffffff16610e27846104af565b73ffffffffffffffffffffffffffffffffffffffff16145b91505092915050565b8273ffffffffffffffffffffffffffffffffffffffff16610e68826107d6565b73ffffffffffffffffffffffffffffffffffffffff1614610ebe576040517f08c379a0000000000000000000000000000000000000000000000000000000008152600401610eb590612aa8565b60405180910390fd5b600073ffffffffffffffffffffffffffffffffffffffff168273ffffffffffffffffffffffffffffffffffffffff161415610f2e576040517f08c379a0000000000000000000000000000000000000000000000000000000008152600401610f2590612ae8565b60405180910390fd5b610f398383836116d3565b610f44600082610cfa565b6001600360008573ffffffffffffffffffffffffffffffffffffffff1673ffffffffffffffffffffffffffffffffffffffff1681526020019081526020016000206000828254610f949190612db4565b925050819055506001600360008473ffffffffffffffffffffffffffffffffffffffff1673ffffffffffffffffffffffffffffffffffffffff1681526020019081526020016000206000828254610feb9190612d2d565b92505081905550816002600083815260200190815260200160002060006101000a81548173ffffffffffffffffffffffffffffffffffffffff021916908373ffffffffffffffffffffffffffffffffffffffff160217905550808273ffffffffffffffffffffffffffffffffffffffff168473ffffffffffffffffffffffffffffffffffffffff167fddf252ad1be2c89b69c2b068fc378daa952ba7f163c4a11628f55a4df523b3ef60405160405180910390a46110aa8383836116e3565b505050565b6110b7610cf2565b73ffffffffffffffffffffffffffffffffffffffff166110d5610954565b73ffffffffffffffffffffffffffffffffffffffff161461112b576040517f08c379a000000000000000000000000000000000000000000000000000000000815260040161112290612ba8565b60405180910390fd5b565b6000600b60009054906101000a900473ffffffffffffffffffffffffffffffffffffffff16905081600b60006101000a81548173ffffffffffffffffffffffffffffffffffffffff021916908373ffffffffffffffffffffffffffffffffffffffff1602179055508173ffffffffffffffffffffffffffffffffffffffff168173ffffffffffffffffffffffffffffffffffffffff167f8be0079c531659141344cd1fd0a4f28419497f9722a3daafe3b4186f6b6457e060405160405180910390a35050565b8173ffffffffffffffffffffffffffffffffffffffff168373ffffffffffffffffffffffffffffffffffffffff161415611262576040517f08c379a000000000000000000000000000000000000000000000000000000000815260040161125990612b08565b60405180910390fd5b80600560008573ffffffffffffffffffffffffffffffffffffffff1673ffffffffffffffffffffffffffffffffffffffff16815260200190815260200160002060008473ffffffffffffffffffffffffffffffffffffffff1673ffffffffffffffffffffffffffffffffffffffff16815260200190815260200160002060006101000a81548160ff0219169083151502179055508173ffffffffffffffffffffffffffffffffffffffff168373ffffffffffffffffffffffffffffffffffffffff167f17307eab39ab6107e8899845ad3d59bd9653f200f220920489ca2b5937696c318360405161135391906129eb565b60405180910390a3505050565b61136b848484610e48565b611377848484846116e8565b6113b6576040517f08c379a00000000000000000000000000000000000000000000000000000000081526004016113ad90612a68565b60405180910390fd5b50505050565b60606113c782610ca7565b6000600a600084815260200190815260200160002080546113e790612e9e565b80601f016020809104026020016040519081016040528092919081815260200182805461141390612e9e565b80156114605780601f1061143557610100808354040283529160200191611460565b820191906000526020600020905b81548152906001019060200180831161144357829003601f168201915b50505050509050600061147161187f565b90506000815114156114875781925050506114ca565b6000825111156114bc5780826040516020016114a4929190612960565b604051602081830303815290604052925050506114ca565b6114c584611896565b925050505b919050565b600081600001549050919050565b6001816000016000828254019250508190555050565b61150d8282604051806020016040528060008152506118fe565b5050565b61151a82611667565b611559576040517f08c379a000000000000000000000000000000000000000000000000000000000815260040161155090612b48565b60405180910390fd5b80600a600084815260200190815260200160002090805190602001906115809291906121fe565b505050565b60007f80ac58cd000000000000000000000000000000000000000000000000000000007bffffffffffffffffffffffffffffffffffffffffffffffffffffffff1916827bffffffffffffffffffffffffffffffffffffffffffffffffffffffff1916148061165057507f5b5e139f000000000000000000000000000000000000000000000000000000007bffffffffffffffffffffffffffffffffffffffffffffffffffffffff1916827bffffffffffffffffffffffffffffffffffffffffffffffffffffffff1916145b80611660575061165f82611959565b5b9050919050565b60008073ffffffffffffffffffffffffffffffffffffffff166002600084815260200190815260200160002060009054906101000a900473ffffffffffffffffffffffffffffffffffffffff1673ffffffffffffffffffffffffffffffffffffffff1614159050919050565b6116de8383836119c3565b505050565b505050565b60006117098473ffffffffffffffffffffffffffffffffffffffff16611ad7565b15611872578373ffffffffffffffffffffffffffffffffffffffff1663150b7a02611732610cf2565b8786866040518563ffffffff1660e01b8152600401611754949392919061299f565b602060405180830381600087803b15801561176e57600080fd5b505af192505050801561179f57506040513d601f19601f8201168201806040525081019061179c91906125aa565b60015b611822573d80600081146117cf576040519150601f19603f3d011682016040523d82523d6000602084013e6117d4565b606091505b5060008151141561181a576040517f08c379a000000000000000000000000000000000000000000000000000000000815260040161181190612a68565b60405180910390fd5b805181602001fd5b63150b7a0260e01b7bffffffffffffffffffffffffffffffffffffffffffffffffffffffff1916817bffffffffffffffffffffffffffffffffffffffffffffffffffffffff191614915050611877565b600190505b949350505050565b606060405180602001604052806000815250905090565b60606118a182610ca7565b60006118ab61187f565b905060008151116118cb57604051806020016040528060008152506118f6565b806118d584611afa565b6040516020016118e6929190612960565b6040516020818303038152906040525b915050919050565b6119088383611ca7565b61191560008484846116e8565b611954576040517f08c379a000000000000000000000000000000000000000000000000000000000815260040161194b90612a68565b60405180910390fd5b505050565b60007f01ffc9a7000000000000000000000000000000000000000000000000000000007bffffffffffffffffffffffffffffffffffffffffffffffffffffffff1916827bffffffffffffffffffffffffffffffffffffffffffffffffffffffff1916149050919050565b6119ce838383611e81565b600073ffffffffffffffffffffffffffffffffffffffff168373ffffffffffffffffffffffffffffffffffffffff161415611a1157611a0c81611e86565b611a50565b8173ffffffffffffffffffffffffffffffffffffffff168373ffffffffffffffffffffffffffffffffffffffff1614611a4f57611a4e8382611ecf565b5b5b600073ffffffffffffffffffffffffffffffffffffffff168273ffffffffffffffffffffffffffffffffffffffff161415611a9357611a8e8161203c565b611ad2565b8273ffffffffffffffffffffffffffffffffffffffff168273ffffffffffffffffffffffffffffffffffffffff1614611ad157611ad0828261217f565b5b5b505050565b6000808273ffffffffffffffffffffffffffffffffffffffff163b119050919050565b60606000821415611b42576040518060400160405280600181526020017f30000000000000000000000000000000000000000000000000000000000000008152509050611ca2565b600082905060005b60008214611b74578080611b5d90612f01565b915050600a82611b6d9190612d83565b9150611b4a565b60008167ffffffffffffffff811115611bb6577f4e487b7100000000000000000000000000000000000000000000000000000000600052604160045260246000fd5b6040519080825280601f01601f191660200182016040528015611be85781602001600182028036833780820191505090505b5090505b60008514611c9b57600182611c019190612db4565b9150600a85611c109190612f4a565b6030611c1c9190612d2d565b60f81b818381518110611c58577f4e487b7100000000000000000000000000000000000000000000000000000000600052603260045260246000fd5b60200101907effffffffffffffffffffffffffffffffffffffffffffffffffffffffffffff1916908160001a905350600a85611c949190612d83565b9450611bec565b8093505050505b919050565b600073ffffffffffffffffffffffffffffffffffffffff168273ffffffffffffffffffffffffffffffffffffffff161415611d17576040517f08c379a0000000000000000000000000000000000000000000000000000000008152600401611d0e90612b88565b60405180910390fd5b611d2081611667565b15611d60576040517f08c379a0000000000000000000000000000000000000000000000000000000008152600401611d5790612ac8565b60405180910390fd5b611d6c600083836116d3565b6001600360008473ffffffffffffffffffffffffffffffffffffffff1673ffffffffffffffffffffffffffffffffffffffff1681526020019081526020016000206000828254611dbc9190612d2d565b92505081905550816002600083815260200190815260200160002060006101000a81548173ffffffffffffffffffffffffffffffffffffffff021916908373ffffffffffffffffffffffffffffffffffffffff160217905550808273ffffffffffffffffffffffffffffffffffffffff16600073ffffffffffffffffffffffffffffffffffffffff167fddf252ad1be2c89b69c2b068fc378daa952ba7f163c4a11628f55a4df523b3ef60405160405180910390a4611e7d600083836116e3565b5050565b505050565b6008805490506009600083815260200190815260200160002081905550600881908060018154018082558091505060019003906000526020600020016000909190919091505550565b60006001611edc84610888565b611ee69190612db4565b9050600060076000848152602001908152602001600020549050818114611fcb576000600660008673ffffffffffffffffffffffffffffffffffffffff1673ffffffffffffffffffffffffffffffffffffffff168152602001908152602001600020600084815260200190815260200160002054905080600660008773ffffffffffffffffffffffffffffffffffffffff1673ffffffffffffffffffffffffffffffffffffffff168152602001908152602001600020600084815260200190815260200160002081905550816007600083815260200190815260200160002081905550505b6007600084815260200190815260200160002060009055600660008573ffffffffffffffffffffffffffffffffffffffff1673ffffffffffffffffffffffffffffffffffffffff16815260200190815260200160002060008381526020019081526020016000206000905550505050565b600060016008805490506120509190612db4565b90506000600960008481526020019081526020016000205490506000600883815481106120a6577f4e487b7100000000000000000000000000000000000000000000000000000000600052603260045260246000fd5b9060005260206000200154905080600883815481106120ee577f4e487b7100000000000000000000000000000000000000000000000000000000600052603260045260246000fd5b906000526020600020018190555081600960008381526020019081526020016000208190555060096000858152602001908152602001600020600090556008805480612163577f4e487b7100000000000000000000000000000000000000000000000000000000600052603160045260246000fd5b6001900381819060005260206000200160009055905550505050565b600061218a83610888565b905081600660008573ffffffffffffffffffffffffffffffffffffffff1673ffffffffffffffffffffffffffffffffffffffff168152602001908152602001600020600083815260200190815260200160002081905550806007600084815260200190815260200160002081905550505050565b82805461220a90612e9e565b90600052602060002090601f01602090048101928261222c5760008555612273565b82601f1061224557805160ff1916838001178555612273565b82800160010185558215612273579182015b82811115612272578251825591602001919060010190612257565b5b5090506122809190612284565b5090565b5b8082111561229d576000816000905550600101612285565b5090565b60006122b46122af84612c88565b612c63565b9050828152602081018484840111156122cc57600080fd5b6122d7848285612e5c565b509392505050565b60006122f26122ed84612cb9565b612c63565b90508281526020810184848401111561230a57600080fd5b612315848285612e5c565b509392505050565b60008135905061232c816134a3565b92915050565b600081359050612341816134ba565b92915050565b600081359050612356816134d1565b92915050565b60008151905061236b816134d1565b92915050565b600082601f83011261238257600080fd5b81356123928482602086016122a1565b91505092915050565b600082601f8301126123ac57600080fd5b81356123bc8482602086016122df565b91505092915050565b6000813590506123d4816134e8565b92915050565b6000602082840312156123ec57600080fd5b60006123fa8482850161231d565b91505092915050565b6000806040838503121561241657600080fd5b60006124248582860161231d565b92505060206124358582860161231d565b9150509250929050565b60008060006060848603121561245457600080fd5b60006124628682870161231d565b93505060206124738682870161231d565b9250506040612484868287016123c5565b9150509250925092565b600080600080608085870312156124a457600080fd5b60006124b28782880161231d565b94505060206124c38782880161231d565b93505060406124d4878288016123c5565b925050606085013567ffffffffffffffff8111156124f157600080fd5b6124fd87828801612371565b91505092959194509250565b6000806040838503121561251c57600080fd5b600061252a8582860161231d565b925050602061253b85828601612332565b9150509250929050565b6000806040838503121561255857600080fd5b60006125668582860161231d565b9250506020612577858286016123c5565b9150509250929050565b60006020828403121561259357600080fd5b60006125a184828501612347565b91505092915050565b6000602082840312156125bc57600080fd5b60006125ca8482850161235c565b91505092915050565b6000602082840312156125e557600080fd5b600082013567ffffffffffffffff8111156125ff57600080fd5b61260b8482850161239b565b91505092915050565b60006020828403121561262657600080fd5b6000612634848285016123c5565b91505092915050565b61264681612de8565b82525050565b61265581612dfa565b82525050565b600061266682612cea565b6126708185612d00565b9350612680818560208601612e6b565b61268981613037565b840191505092915050565b600061269f82612cf5565b6126a98185612d11565b93506126b9818560208601612e6b565b6126c281613037565b840191505092915050565b60006126d882612cf5565b6126e28185612d22565b93506126f2818560208601612e6b565b80840191505092915050565b600061270b601783612d11565b915061271682613048565b602082019050919050565b600061272e602b83612d11565b915061273982613071565b604082019050919050565b6000612751603283612d11565b915061275c826130c0565b604082019050919050565b6000612774602683612d11565b915061277f8261310f565b604082019050919050565b6000612797602583612d11565b91506127a28261315e565b604082019050919050565b60006127ba601c83612d11565b91506127c5826131ad565b602082019050919050565b60006127dd602483612d11565b91506127e8826131d6565b604082019050919050565b6000612800601983612d11565b915061280b82613225565b602082019050919050565b6000612823602983612d11565b915061282e8261324e565b604082019050919050565b6000612846602e83612d11565b91506128518261329d565b604082019050919050565b6000612869603e83612d11565b9150612874826132ec565b604082019050919050565b600061288c602083612d11565b91506128978261333b565b602082019050919050565b60006128af602083612d11565b91506128ba82613364565b602082019050919050565b60006128d2601883612d11565b91506128dd8261338d565b602082019050919050565b60006128f5602183612d11565b9150612900826133b6565b604082019050919050565b6000612918602c83612d11565b915061292382613405565b604082019050919050565b600061293b602e83612d11565b915061294682613454565b604082019050919050565b61295a81612e52565b82525050565b600061296c82856126cd565b915061297882846126cd565b91508190509392505050565b6000602082019050612999600083018461263d565b92915050565b60006080820190506129b4600083018761263d565b6129c1602083018661263d565b6129ce6040830185612951565b81810360608301526129e0818461265b565b905095945050505050565b6000602082019050612a00600083018461264c565b92915050565b60006020820190508181036000830152612a208184612694565b905092915050565b60006020820190508181036000830152612a41816126fe565b9050919050565b60006020820190508181036000830152612a6181612721565b9050919050565b60006020820190508181036000830152612a8181612744565b9050919050565b60006020820190508181036000830152612aa181612767565b9050919050565b60006020820190508181036000830152612ac18161278a565b9050919050565b60006020820190508181036000830152612ae1816127ad565b9050919050565b60006020820190508181036000830152612b01816127d0565b9050919050565b60006020820190508181036000830152612b21816127f3565b9050919050565b60006020820190508181036000830152612b4181612816565b9050919050565b60006020820190508181036000830152612b6181612839565b9050919050565b60006020820190508181036000830152612b818161285c565b9050919050565b60006020820190508181036000830152612ba18161287f565b9050919050565b60006020820190508181036000830152612bc1816128a2565b9050919050565b60006020820190508181036000830152612be1816128c5565b9050919050565b60006020820190508181036000830152612c01816128e8565b9050919050565b60006020820190508181036000830152612c218161290b565b9050919050565b60006020820190508181036000830152612c418161292e565b9050919050565b6000602082019050612c5d6000830184612951565b92915050565b6000612c6d612c7e565b9050612c798282612ed0565b919050565b6000604051905090565b600067ffffffffffffffff821115612ca357612ca2613008565b5b612cac82613037565b9050602081019050919050565b600067ffffffffffffffff821115612cd457612cd3613008565b5b612cdd82613037565b9050602081019050919050565b600081519050919050565b600081519050919050565b600082825260208201905092915050565b600082825260208201905092915050565b600081905092915050565b6000612d3882612e52565b9150612d4383612e52565b9250827fffffffffffffffffffffffffffffffffffffffffffffffffffffffffffffffff03821115612d7857612d77612f7b565b5b828201905092915050565b6000612d8e82612e52565b9150612d9983612e52565b925082612da957612da8612faa565b5b828204905092915050565b6000612dbf82612e52565b9150612dca83612e52565b925082821015612ddd57612ddc612f7b565b5b828203905092915050565b6000612df382612e32565b9050919050565b60008115159050919050565b60007fffffffff0000000000000000000000000000000000000000000000000000000082169050919050565b600073ffffffffffffffffffffffffffffffffffffffff82169050919050565b6000819050919050565b82818337600083830152505050565b60005b83811015612e89578082015181840152602081019050612e6e565b83811115612e98576000848401525b50505050565b60006002820490506001821680612eb657607f821691505b60208210811415612eca57612ec9612fd9565b5b50919050565b612ed982613037565b810181811067ffffffffffffffff82111715612ef857612ef7613008565b5b80604052505050565b6000612f0c82612e52565b91507fffffffffffffffffffffffffffffffffffffffffffffffffffffffffffffffff821415612f3f57612f3e612f7b565b5b600182019050919050565b6000612f5582612e52565b9150612f6083612e52565b925082612f7057612f6f612faa565b5b828206905092915050565b7f4e487b7100000000000000000000000000000000000000000000000000000000600052601160045260246000fd5b7f4e487b7100000000000000000000000000000000000000000000000000000000600052601260045260246000fd5b7f4e487b7100000000000000000000000000000000000000000000000000000000600052602260045260246000fd5b7f4e487b7100000000000000000000000000000000000000000000000000000000600052604160045260246000fd5b6000601f19601f8301169050919050565b7f456e74657220612076616c696420746f6b656e20757269000000000000000000600082015250565b7f455243373231456e756d657261626c653a206f776e657220696e646578206f7560008201527f74206f6620626f756e6473000000000000000000000000000000000000000000602082015250565b7f4552433732313a207472616e7366657220746f206e6f6e20455243373231526560008201527f63656976657220696d706c656d656e7465720000000000000000000000000000602082015250565b7f4f776e61626c653a206e6577206f776e657220697320746865207a65726f206160008201527f6464726573730000000000000000000000000000000000000000000000000000602082015250565b7f4552433732313a207472616e736665722066726f6d20696e636f72726563742060008201527f6f776e6572000000000000000000000000000000000000000000000000000000602082015250565b7f4552433732313a20746f6b656e20616c7265616479206d696e74656400000000600082015250565b7f4552433732313a207472616e7366657220746f20746865207a65726f2061646460008201527f7265737300000000000000000000000000000000000000000000000000000000602082015250565b7f4552433732313a20617070726f766520746f2063616c6c657200000000000000600082015250565b7f4552433732313a2061646472657373207a65726f206973206e6f74206120766160008201527f6c6964206f776e65720000000000000000000000000000000000000000000000602082015250565b7f45524337323155524953746f726167653a2055524920736574206f66206e6f6e60008201527f6578697374656e7420746f6b656e000000000000000000000000000000000000602082015250565b7f4552433732313a20617070726f76652063616c6c6572206973206e6f7420746f60008201527f6b656e206f776e6572206e6f7220617070726f76656420666f7220616c6c0000602082015250565b7f4552433732313a206d696e7420746f20746865207a65726f2061646472657373600082015250565b7f4f776e61626c653a2063616c6c6572206973206e6f7420746865206f776e6572600082015250565b7f4552433732313a20696e76616c696420746f6b656e2049440000000000000000600082015250565b7f4552433732313a20617070726f76616c20746f2063757272656e74206f776e6560008201527f7200000000000000000000000000000000000000000000000000000000000000602082015250565b7f455243373231456e756d657261626c653a20676c6f62616c20696e646578206f60008201527f7574206f6620626f756e64730000000000000000000000000000000000000000602082015250565b7f4552433732313a2063616c6c6572206973206e6f7420746f6b656e206f776e6560008201527f72206e6f7220617070726f766564000000000000000000000000000000000000602082015250565b6134ac81612de8565b81146134b757600080fd5b50565b6134c381612dfa565b81146134ce57600080fd5b50565b6134da81612e06565b81146134e557600080fd5b50565b6134f181612e52565b81146134fc57600080fd5b5056fea26469706673582212200754852584006d9cb8157ac3d4cb90ee9de298687e12d43b73510bc990c2857864736f6c63430008040033",
  "linkReferences": {},
  "deployedLinkReferences": {}
}