{
  "_format": "hh-sol-artifact-1",
  "contractName": "StakersContract",
  "sourceName": "contracts/StakersContract.sol",
  "abi": [
    {
      "inputs": [
        {
          "internalType": "address",
          "name": "_nftContractAddress",
          "type": "address"
        }
      ],
      "stateMutability": "nonpayable",
      "type": "constructor"
    },
    {
      "anonymous": false,
      "inputs": [
        {
          "indexed": false,
          "internalType": "string",
          "name": "name",
          "type": "string"
        },
        {
          "indexed": true,
          "internalType": "address",
          "name": "creator",
          "type": "address"
        }
      ],
      "name": "PotCreated",
      "type": "event"
    },
    {
      "inputs": [
        {
          "internalType": "string",
          "name": "_potName",
          "type": "string"
        },
        {
          "internalType": "uint256",
          "name": "_size",
          "type": "uint256"
        }
      ],
      "name": "createPot",
      "outputs": [],
      "stateMutability": "nonpayable",
      "type": "function"
    },
    {
      "inputs": [],
      "name": "getAllPots",
      "outputs": [
        {
          "components": [
            {
              "internalType": "string",
              "name": "name",
              "type": "string"
            },
            {
              "internalType": "uint256",
              "name": "size",
              "type": "uint256"
            },
            {
              "internalType": "address",
              "name": "creator",
              "type": "address"
            },
            {
              "internalType": "address",
              "name": "winner",
              "type": "address"
            },
            {
              "internalType": "uint256[]",
              "name": "tokens",
              "type": "uint256[]"
            },
            {
              "internalType": "address[]",
              "name": "stakers",
              "type": "address[]"
            },
            {
              "internalType": "enum StakersContract.Status",
              "name": "status",
              "type": "uint8"
            }
          ],
          "internalType": "struct StakersContract.Pot[]",
          "name": "",
          "type": "tuple[]"
        }
      ],
      "stateMutability": "view",
      "type": "function"
    },
    {
      "inputs": [
        {
          "internalType": "uint256",
          "name": "_potId",
          "type": "uint256"
        }
      ],
      "name": "getOnePot",
      "outputs": [
        {
          "internalType": "string",
          "name": "name",
          "type": "string"
        },
        {
          "internalType": "uint256",
          "name": "size",
          "type": "uint256"
        },
        {
          "internalType": "address",
          "name": "creator",
          "type": "address"
        },
        {
          "internalType": "address",
          "name": "winner",
          "type": "address"
        },
        {
          "internalType": "uint256[]",
          "name": "tokens",
          "type": "uint256[]"
        },
        {
          "internalType": "address[]",
          "name": "stakers",
          "type": "address[]"
        },
        {
          "internalType": "enum StakersContract.Status",
          "name": "status",
          "type": "uint8"
        }
      ],
      "stateMutability": "view",
      "type": "function"
    },
    {
      "inputs": [
        {
          "internalType": "uint256",
          "name": "_length",
          "type": "uint256"
        }
      ],
      "name": "getWinningIndex",
      "outputs": [
        {
          "internalType": "uint256",
          "name": "",
          "type": "uint256"
        }
      ],
      "stateMutability": "nonpayable",
      "type": "function"
    },
    {
      "inputs": [
        {
          "internalType": "address",
          "name": "",
          "type": "address"
        },
        {
          "internalType": "address",
          "name": "",
          "type": "address"
        },
        {
          "internalType": "uint256",
          "name": "",
          "type": "uint256"
        },
        {
          "internalType": "bytes",
          "name": "",
          "type": "bytes"
        }
      ],
      "name": "onERC721Received",
      "outputs": [
        {
          "internalType": "bytes4",
          "name": "",
          "type": "bytes4"
        }
      ],
      "stateMutability": "pure",
      "type": "function"
    },
    {
      "inputs": [
        {
          "internalType": "uint256",
          "name": "_potId",
          "type": "uint256"
        }
      ],
      "name": "shakePot",
      "outputs": [],
      "stateMutability": "nonpayable",
      "type": "function"
    },
    {
      "inputs": [
        {
          "internalType": "uint256",
          "name": "_potId",
          "type": "uint256"
        },
        {
          "internalType": "uint256",
          "name": "_tokenId",
          "type": "uint256"
        }
      ],
      "name": "stake",
      "outputs": [],
      "stateMutability": "nonpayable",
      "type": "function"
    }
  ],
  "bytecode": "0x60a060405260006001553480156200001657600080fd5b506040516200201b3803806200201b83398181016040528101906200003c919062000091565b8073ffffffffffffffffffffffffffffffffffffffff1660808173ffffffffffffffffffffffffffffffffffffffff1660601b81525050506200010b565b6000815190506200008b81620000f1565b92915050565b600060208284031215620000a457600080fd5b6000620000b4848285016200007a565b91505092915050565b6000620000ca82620000d1565b9050919050565b600073ffffffffffffffffffffffffffffffffffffffff82169050919050565b620000fc81620000bd565b81146200010857600080fd5b50565b60805160601c611eea620001316000396000818161058901526109fb0152611eea6000f3fe608060405234801561001057600080fd5b506004361061007d5760003560e01c80634c63e4a91161005b5780634c63e4a9146100ea5780637b0472f014610120578063b81f58dd1461013c578063dc6693d91461016c5761007d565b8063150b7a02146100825780632f3e5cb8146100b25780633f2f197a146100ce575b600080fd5b61009c600480360381019061009791906112d8565b61018a565b6040516100a991906118d1565b60405180910390f35b6100cc60048036038101906100c79190611358565b61019f565b005b6100e860048036038101906100e391906113ac565b610449565b005b61010460048036038101906100ff91906113ac565b610676565b604051610117979695949392919061190e565b60405180910390f35b61013a600480360381019061013591906113d5565b610995565b005b610156600480360381019061015191906113ac565b610b8d565b60405161016391906119d2565b60405180910390f35b610174610bee565b60405161018191906118af565b60405180910390f35b600063150b7a0260e01b905095945050505050565b60038110156101e3576040517f08c379a00000000000000000000000000000000000000000000000000000000081526004016101da906119b2565b60405180910390fd5b60006101ef6000610fbd565b905060608060006040518060e001604052808781526020018681526020013373ffffffffffffffffffffffffffffffffffffffff168152602001600073ffffffffffffffffffffffffffffffffffffffff16815260200184815260200183815260200182600181111561028b577f4e487b7100000000000000000000000000000000000000000000000000000000600052602160045260246000fd5b8152506002600086815260200190815260200160002060008201518160000190805190602001906102bd929190610fe1565b506020820151816001015560408201518160020160006101000a81548173ffffffffffffffffffffffffffffffffffffffff021916908373ffffffffffffffffffffffffffffffffffffffff16021790555060608201518160030160006101000a81548173ffffffffffffffffffffffffffffffffffffffff021916908373ffffffffffffffffffffffffffffffffffffffff1602179055506080820151816004019080519060200190610372929190611067565b5060a082015181600501908051906020019061038f9291906110b4565b5060c08201518160060160006101000a81548160ff021916908360018111156103e1577f4e487b7100000000000000000000000000000000000000000000000000000000600052602160045260246000fd5b02179055509050503373ffffffffffffffffffffffffffffffffffffffff167faa650d802013fb752c126b433513297b762d780c599a1d25a995421b3eef72698760405161042f91906118ec565b60405180910390a26104416000610fcb565b505050505050565b600060026000838152602001908152602001600020905060006104728260040180549050610b8d565b905060008260050182815481106104b2577f4e487b7100000000000000000000000000000000000000000000000000000000600052603260045260246000fd5b9060005260206000200160009054906101000a900473ffffffffffffffffffffffffffffffffffffffff169050808360030160006101000a81548173ffffffffffffffffffffffffffffffffffffffff021916908373ffffffffffffffffffffffffffffffffffffffff16021790555060018360060160006101000a81548160ff02191690836001811115610570577f4e487b7100000000000000000000000000000000000000000000000000000000600052602160045260246000fd5b021790555060005b836004018054905081101561066f577f000000000000000000000000000000000000000000000000000000000000000073ffffffffffffffffffffffffffffffffffffffff166342842e0e3084876004018581548110610601577f4e487b7100000000000000000000000000000000000000000000000000000000600052603260045260246000fd5b90600052602060002001546040518463ffffffff1660e01b815260040161062a93929190611878565b600060405180830381600087803b15801561064457600080fd5b505af1158015610658573d6000803e3d6000fd5b50505050808061066790611c6f565b915050610578565b5050505050565b60606000806000606080600080600260008a81526020019081526020016000206040518060e00160405290816000820180546106b190611c0c565b80601f01602080910402602001604051908101604052809291908181526020018280546106dd90611c0c565b801561072a5780601f106106ff5761010080835404028352916020019161072a565b820191906000526020600020905b81548152906001019060200180831161070d57829003601f168201915b50505050508152602001600182015481526020016002820160009054906101000a900473ffffffffffffffffffffffffffffffffffffffff1673ffffffffffffffffffffffffffffffffffffffff1673ffffffffffffffffffffffffffffffffffffffff1681526020016003820160009054906101000a900473ffffffffffffffffffffffffffffffffffffffff1673ffffffffffffffffffffffffffffffffffffffff1673ffffffffffffffffffffffffffffffffffffffff1681526020016004820180548060200260200160405190810160405280929190818152602001828054801561083857602002820191906000526020600020905b815481526020019060010190808311610824575b50505050508152602001600582018054806020026020016040519081016040528092919081815260200182805480156108c657602002820191906000526020600020905b8160009054906101000a900473ffffffffffffffffffffffffffffffffffffffff1673ffffffffffffffffffffffffffffffffffffffff168152602001906001019080831161087c575b505050505081526020016006820160009054906101000a900460ff16600181111561091a577f4e487b7100000000000000000000000000000000000000000000000000000000600052602160045260246000fd5b6001811115610952577f4e487b7100000000000000000000000000000000000000000000000000000000600052602160045260246000fd5b81525050905080600001519750806020015196508060400151955080606001519450806080015193508060a0015192508060c00151915050919395979092949650565b600060026000848152602001908152602001600020905080600101548160040180549050106109f9576040517f08c379a00000000000000000000000000000000000000000000000000000000081526004016109f090611992565b60405180910390fd5b7f000000000000000000000000000000000000000000000000000000000000000073ffffffffffffffffffffffffffffffffffffffff166342842e0e3330856040518463ffffffff1660e01b8152600401610a5693929190611878565b600060405180830381600087803b158015610a7057600080fd5b505af1158015610a84573d6000803e3d6000fd5b505050508060040182908060018154018082558091505060019003906000526020600020016000909190919091505580600501339080600181540180825580915050600190039060005260206000200160009091909190916101000a81548173ffffffffffffffffffffffffffffffffffffffff021916908373ffffffffffffffffffffffffffffffffffffffff16021790555060008160060160006101000a81548160ff02191690836001811115610b66577f4e487b7100000000000000000000000000000000000000000000000000000000600052602160045260246000fd5b0217905550806001015481600401805490501415610b8857610b8783610449565b5b505050565b600080824233600154604051602001610ba89392919061183b565b6040516020818303038152906040528051906020012060001c610bcb9190611ce6565b905060016000815480929190610be090611c6f565b919050555080915050919050565b60606000610bfc6000610fbd565b67ffffffffffffffff811115610c3b577f4e487b7100000000000000000000000000000000000000000000000000000000600052604160045260246000fd5b604051908082528060200260200182016040528015610c7457816020015b610c6161113e565b815260200190600190039081610c595790505b50905060005b610c846000610fbd565b811015610fb557600260008281526020019081526020016000206040518060e0016040529081600082018054610cb990611c0c565b80601f0160208091040260200160405190810160405280929190818152602001828054610ce590611c0c565b8015610d325780601f10610d0757610100808354040283529160200191610d32565b820191906000526020600020905b815481529060010190602001808311610d1557829003601f168201915b50505050508152602001600182015481526020016002820160009054906101000a900473ffffffffffffffffffffffffffffffffffffffff1673ffffffffffffffffffffffffffffffffffffffff1673ffffffffffffffffffffffffffffffffffffffff1681526020016003820160009054906101000a900473ffffffffffffffffffffffffffffffffffffffff1673ffffffffffffffffffffffffffffffffffffffff1673ffffffffffffffffffffffffffffffffffffffff16815260200160048201805480602002602001604051908101604052809291908181526020018280548015610e4057602002820191906000526020600020905b815481526020019060010190808311610e2c575b5050505050815260200160058201805480602002602001604051908101604052809291908181526020018280548015610ece57602002820191906000526020600020905b8160009054906101000a900473ffffffffffffffffffffffffffffffffffffffff1673ffffffffffffffffffffffffffffffffffffffff1681526020019060010190808311610e84575b505050505081526020016006820160009054906101000a900460ff166001811115610f22577f4e487b7100000000000000000000000000000000000000000000000000000000600052602160045260246000fd5b6001811115610f5a577f4e487b7100000000000000000000000000000000000000000000000000000000600052602160045260246000fd5b81525050828281518110610f97577f4e487b7100000000000000000000000000000000000000000000000000000000600052603260045260246000fd5b60200260200101819052508080610fad90611c6f565b915050610c7a565b508091505090565b600081600001549050919050565b6001816000016000828254019250508190555050565b828054610fed90611c0c565b90600052602060002090601f01602090048101928261100f5760008555611056565b82601f1061102857805160ff1916838001178555611056565b82800160010185558215611056579182015b8281111561105557825182559160200191906001019061103a565b5b50905061106391906111df565b5090565b8280548282559060005260206000209081019282156110a3579160200282015b828111156110a2578251825591602001919060010190611087565b5b5090506110b091906111df565b5090565b82805482825590600052602060002090810192821561112d579160200282015b8281111561112c5782518260006101000a81548173ffffffffffffffffffffffffffffffffffffffff021916908373ffffffffffffffffffffffffffffffffffffffff160217905550916020019190600101906110d4565b5b50905061113a91906111df565b5090565b6040518060e001604052806060815260200160008152602001600073ffffffffffffffffffffffffffffffffffffffff168152602001600073ffffffffffffffffffffffffffffffffffffffff1681526020016060815260200160608152602001600060018111156111d9577f4e487b7100000000000000000000000000000000000000000000000000000000600052602160045260246000fd5b81525090565b5b808211156111f85760008160009055506001016111e0565b5090565b600061120f61120a84611a12565b6119ed565b90508281526020810184848401111561122757600080fd5b611232848285611bca565b509392505050565b60008135905061124981611e86565b92915050565b60008083601f84011261126157600080fd5b8235905067ffffffffffffffff81111561127a57600080fd5b60208301915083600182028301111561129257600080fd5b9250929050565b600082601f8301126112aa57600080fd5b81356112ba8482602086016111fc565b91505092915050565b6000813590506112d281611e9d565b92915050565b6000806000806000608086880312156112f057600080fd5b60006112fe8882890161123a565b955050602061130f8882890161123a565b9450506040611320888289016112c3565b935050606086013567ffffffffffffffff81111561133d57600080fd5b6113498882890161124f565b92509250509295509295909350565b6000806040838503121561136b57600080fd5b600083013567ffffffffffffffff81111561138557600080fd5b61139185828601611299565b92505060206113a2858286016112c3565b9150509250929050565b6000602082840312156113be57600080fd5b60006113cc848285016112c3565b91505092915050565b600080604083850312156113e857600080fd5b60006113f6858286016112c3565b9250506020611407858286016112c3565b9150509250929050565b600061141d8383611455565b60208301905092915050565b6000611435838361175c565b905092915050565b60006114498383611806565b60208301905092915050565b61145e81611b3d565b82525050565b61146d81611b3d565b82525050565b61148461147f82611b3d565b611cb8565b82525050565b600061149582611a73565b61149f8185611ac6565b93506114aa83611a43565b8060005b838110156114db5781516114c28882611411565b97506114cd83611a9f565b9250506001810190506114ae565b5085935050505092915050565b60006114f382611a73565b6114fd8185611ad7565b935061150883611a43565b8060005b838110156115395781516115208882611411565b975061152b83611a9f565b92505060018101905061150c565b5085935050505092915050565b600061155182611a7e565b61155b8185611ae8565b93508360208202850161156d85611a53565b8060005b858110156115a9578484038952815161158a8582611429565b945061159583611aac565b925060208a01995050600181019050611571565b50829750879550505050505092915050565b60006115c682611a89565b6115d08185611af9565b93506115db83611a63565b8060005b8381101561160c5781516115f3888261143d565b97506115fe83611ab9565b9250506001810190506115df565b5085935050505092915050565b600061162482611a89565b61162e8185611b0a565b935061163983611a63565b8060005b8381101561166a578151611651888261143d565b975061165c83611ab9565b92505060018101905061163d565b5085935050505092915050565b61168081611b4f565b82525050565b61168f81611bb8565b82525050565b61169e81611bb8565b82525050565b60006116af82611a94565b6116b98185611b1b565b93506116c9818560208601611bd9565b6116d281611e02565b840191505092915050565b60006116e882611a94565b6116f28185611b2c565b9350611702818560208601611bd9565b61170b81611e02565b840191505092915050565b6000611723601583611b2c565b915061172e82611e20565b602082019050919050565b6000611746601f83611b2c565b915061175182611e49565b602082019050919050565b600060e083016000830151848203600086015261177982826116a4565b915050602083015161178e6020860182611806565b5060408301516117a16040860182611455565b5060608301516117b46060860182611455565b50608083015184820360808601526117cc82826115bb565b91505060a083015184820360a08601526117e6828261148a565b91505060c08301516117fb60c0860182611686565b508091505092915050565b61180f81611bae565b82525050565b61181e81611bae565b82525050565b61183561183082611bae565b611cdc565b82525050565b60006118478286611824565b6020820191506118578285611473565b6014820191506118678284611824565b602082019150819050949350505050565b600060608201905061188d6000830186611464565b61189a6020830185611464565b6118a76040830184611815565b949350505050565b600060208201905081810360008301526118c98184611546565b905092915050565b60006020820190506118e66000830184611677565b92915050565b6000602082019050818103600083015261190681846116dd565b905092915050565b600060e0820190508181036000830152611928818a6116dd565b90506119376020830189611815565b6119446040830188611464565b6119516060830187611464565b81810360808301526119638186611619565b905081810360a083015261197781856114e8565b905061198660c0830184611695565b98975050505050505050565b600060208201905081810360008301526119ab81611716565b9050919050565b600060208201905081810360008301526119cb81611739565b9050919050565b60006020820190506119e76000830184611815565b92915050565b60006119f7611a08565b9050611a038282611c3e565b919050565b6000604051905090565b600067ffffffffffffffff821115611a2d57611a2c611dd3565b5b611a3682611e02565b9050602081019050919050565b6000819050602082019050919050565b6000819050602082019050919050565b6000819050602082019050919050565b600081519050919050565b600081519050919050565b600081519050919050565b600081519050919050565b6000602082019050919050565b6000602082019050919050565b6000602082019050919050565b600082825260208201905092915050565b600082825260208201905092915050565b600082825260208201905092915050565b600082825260208201905092915050565b600082825260208201905092915050565b600082825260208201905092915050565b600082825260208201905092915050565b6000611b4882611b8e565b9050919050565b60007fffffffff0000000000000000000000000000000000000000000000000000000082169050919050565b6000819050611b8982611e72565b919050565b600073ffffffffffffffffffffffffffffffffffffffff82169050919050565b6000819050919050565b6000611bc382611b7b565b9050919050565b82818337600083830152505050565b60005b83811015611bf7578082015181840152602081019050611bdc565b83811115611c06576000848401525b50505050565b60006002820490506001821680611c2457607f821691505b60208210811415611c3857611c37611da4565b5b50919050565b611c4782611e02565b810181811067ffffffffffffffff82111715611c6657611c65611dd3565b5b80604052505050565b6000611c7a82611bae565b91507fffffffffffffffffffffffffffffffffffffffffffffffffffffffffffffffff821415611cad57611cac611d17565b5b600182019050919050565b6000611cc382611cca565b9050919050565b6000611cd582611e13565b9050919050565b6000819050919050565b6000611cf182611bae565b9150611cfc83611bae565b925082611d0c57611d0b611d46565b5b828206905092915050565b7f4e487b7100000000000000000000000000000000000000000000000000000000600052601160045260246000fd5b7f4e487b7100000000000000000000000000000000000000000000000000000000600052601260045260246000fd5b7f4e487b7100000000000000000000000000000000000000000000000000000000600052602160045260246000fd5b7f4e487b7100000000000000000000000000000000000000000000000000000000600052602260045260246000fd5b7f4e487b7100000000000000000000000000000000000000000000000000000000600052604160045260246000fd5b6000601f19601f8301169050919050565b60008160601b9050919050565b7f506f7420616c72656164792066696c6c65642075700000000000000000000000600082015250565b7f506f742073697a65206d7573742062652067726561746572207468616e203200600082015250565b60028110611e8357611e82611d75565b5b50565b611e8f81611b3d565b8114611e9a57600080fd5b50565b611ea681611bae565b8114611eb157600080fd5b5056fea26469706673582212202b7e7de532304ce1bda07fe15d3a1794601d42706d495cbaad303fef7042b3dd64736f6c63430008040033",
  "linkReferences": {},
  "deployedLinkReferences": {}
}